:020000040800F2
:1000000000500020A9390008493700084B37000884
:100010004D3700084F370008513700080000000036
:100020000000000000000000000000003124000873
:100030005337000800000000D124000815250008EF
:10004000F1390008F1390008F1390008F1390008E8
:10005000F1390008F1390008F1390008F1390008D8
:1000600055370008F1390008F1390008F139000866
:10007000F1390008F1390008F1390008F1390008B8
:10008000F1390008F1390008F1390008F1390008A8
:10009000F1390008F1390008F1390008F139000898
:1000A000F139000861370008F1390008F13900081A
:1000B000F1390008F1390008F1390008F139000878
:1000C000F1390008F1390008F1390008F139000868
:1000D000F1390008F1390008F1390008F139000858
:1000E000F1390008F1390008F1390008000000007A
:1000F0000000000000000000000000000000000000
:0C01000000000000000000005FF808F1A3
:1001100010B5054C237833B9044B13B10448AFF341
:1001200000800123237010BD80000020000000002B
:100130009C42000808B5034B1BB103490348AFF3C9
:10014000008008BD00000000840000209C420008E0
:10015000034613F8012B002AFBD1181A0138704707
:1001600008B5074A136843F010031360032000F03A
:1001700079F9002003F0ACFA03F060F9002008BD23
:1001800000200240034A1168034B1B780B441360A4
:10019000704700BF480E002000000020014B186887
:1001A000704700BF480E002038B50446FFF7F6FF41
:1001B0000546B4F1FF3F02D0044B1B781C44FFF707
:1001C000EDFF401BA042FAD338BD00BF0000002065
:1001D00030B482B00023019390F82430012B00F05A
:1001E0008B800246012380F824304B68062B29D8E7
:1001F0000568686B03EB8303053B1F249C4020EAE2
:1002000004000C6804FA03F303436B630B68092BC7
:1002100038D91568E86803EB43031E3B07249C406C
:1002200020EA04008C6804FA03F30343EB600B68D4
:10023000103B012B34D90020002382F8243002B077
:1002400030BC70470C2B0ED80568286B03EB83037A
:10025000233B1F249C4020EA04000C6804FA03F3AB
:1002600003432B63D2E70568E86A03EB8303413B52
:100270001F249C4020EA04000C6804FA03F30343A3
:10028000EB62C3E71568286903EB430307249C402E
:1002900020EA04008C6804FA03F303432B61C6E7E9
:1002A00013681648834205D0936A43F02003936293
:1002B0000120C1E7986810F4000F1BD1986840F442
:1002C000000098600B68102B01D00020B4E70C4BA5
:1002D0001B680C49A1FB03139B0C03EB8303590020
:1002E000019102E0019B013B0193019B002BF9D19D
:1002F0000020A1E700209FE70220A0E700240140A2
:100300001800002083DE1B4338B503689A6812F09A
:10031000010F01D1002038BD04469A6822F0010285
:100320009A60FFF73BFF054623689B6813F0010FB7
:100330000ED0FFF733FF401B0228F5D9A36A43F024
:100340001003A362E36A43F00103E3620120E2E7E2
:100350000020E0E700287FD038B50446836A002BF0
:1003600033D02046FFF7D0FFA36A13F010036DD1FE
:1003700000286BD1A26A22F4885222F0020242F0D5
:100380000202A2626268E1690A43E56842EA450244
:10039000A168B1F5807F21D001291CD061690129B4
:1003A0001FD02568696821F469410B436B6021689F
:1003B0008D682A4B2B4013438B60A368B3F5807F75
:1003C00020D0012B1ED000211FE0C36280F8243012
:1003D00003F05EF8C5E74FF48073DFE74FF48073F6
:1003E000DCE735B9A169013943EA413343F40063DD
:1003F000D7E7A16A41F02001A162E16A41F0010161
:10040000E162CEE72369013B19052568EB6A23F415
:1004100070030B43EB6223689968114B0B409A42BF
:100420000BD0A36A23F0120343F01003A362E36A24
:1004300043F00103E36201200DE00023E362A36ABD
:1004400023F0030343F00103A36204E0A36A43F033
:100450001003A362012038BD01207047FDF7E1FFC2
:10046000FE0E1FFF074AD36823F4E0631B041B0C36
:10047000000200F4E060184340F0BF6040F4003038
:10048000D060704700ED00E030B4174BDB68C3F379
:100490000223C3F10704042C28BF04241D1D062DCC
:1004A00018D9033B4FF0FF3505FA04F421EA0401A3
:1004B000994005FA03F322EA0303194300280BDBF2
:1004C0000901C9B200F1604000F5614080F80013F5
:1004D00030BC70470023E5E700F00F000901C9B206
:1004E000024B1954F4E700BF00ED00E014ED00E00A
:1004F00000F01F02400901239340024A42F82030D5
:10050000704700BF00E100E0F0B482B0002635463D
:10051000A1E0002C59D0012C00D1CE68FF2B68D867
:100520008446FF2B68D8AC00DCF800200F27A740DA
:1005300022EA070206FA04F42243CCF800204A68B3
:1005400012F0805F00F086805E4A946944F00104F6
:100550009461926902F001020192019AAC08A71C11
:10056000594A52F8272005F00307BF004FF00F0C3F
:100570000CFA07FC22EA0C0C544A904242D002F5D5
:10058000806290427FD002F5806290427DD002F579
:100590008062904234D0042235E04D4FBC4214D0EA
:1005A0000BD94C4FBC4210D007F58037BC420CD061
:1005B000A7F58017BC42B1D107E0A7F58017BC4270
:1005C00003D007F58037BC42A8D18C687CB1012CE0
:1005D00008D042610826A1E7CE6808369EE7CE68BB
:1005E0000C369BE70261082698E7002696E704266A
:1005F00094E700F1040C94E7A5F10804A40093E744
:10060000032200E00022BA4042EA0C0202342E4FDC
:1006100047F824204A6812F4803F38D02E4C2268D4
:100620001A4322604A6812F4003F36D02A4C6268AE
:100630001A4362604A6812F4801F34D0264CA268C4
:100640001A43A2604A6812F4001F32D0224CE268BA
:100650001343E36001350F2D31D80122AA400B6806
:1006600013409A42F6D14C68122CB8D095D8022C7F
:10067000B2D07FF64EAF032CB7D0112C7FF44EAF23
:10068000CE6804364AE70122BDE70222BBE7124CDE
:10069000226822EA03022260C4E70F4C626822EA61
:1006A00003026260C6E70C4CA26822EA0302A26061
:1006B000C8E7094CE26822EA0303E360CAE702B034
:1006C000F0BC7047001002400000014000080140EB
:1006D00000002110000031100004014012B909048B
:1006E0000161704701617047C3685940C16070473C
:1006F00008B5054B5B69034200D108BD024B586148
:1007000002F026FDF9E700BF00040140002800F0D8
:10071000A28038B5044690F83D30002B4FD02423FA
:1007200084F83D302268136823F00103136000F061
:10073000B1FB62684A4B9A4246D84A4B98428CBFFA
:1007400000230123002B40F08880474BA3FB0023AC
:100750009B0C226853606168414A91423AD8013348
:100760002268136261683E4B99423DD8431E49009E
:10077000B3FBF1F30133C3F30B03042B38BF0423A2
:100780002268D361E369216A22680B4313602369FD
:10079000E16822680B4393606369A16922680B4397
:1007A000D3602268136843F00103136000202064C3
:1007B000202384F83D30206384F83E0038BD80F863
:1007C0003C3002F095FEAAE7284B98428CBF0023EC
:1007D0000123B7E74FF4967202FB03F3244AA2FB0E
:1007E00003239B090133BBE7A368BBB9421E01EB9E
:1007F0004105B2FBF5F20132C2F30B02B2FA82F20A
:10080000520932BBC3B9013801EB4103B0FBF3F32A
:100810000133C3F30B0343F40043B1E7421E01EB82
:10082000810505EB8505B2FBF5F20132C2F30B023F
:10083000B2FA82F25209E4E7013801EB810303EBDB
:100840008303B0FBF3F30133C3F30B0343F44043DF
:1008500096E7012394E7012070470120AEE700BF2F
:10086000A08601007F841E0083DE1B43FF083D003D
:10087000D34D621082B0084B1B68084AA2FB0323C9
:100880005B0A00FB03F0019000BF019B5A1E01921E
:10089000002BF9D102B0704718000020D34D621030
:1008A00070B582B00446036813F0010F2CD0AB4B37
:1008B0005B6803F00C03042B1DD0A84B5B6803F0AE
:1008C0000C03082B12D06368B3F5803F41D0002B96
:1008D00055D103F1804303F504331A6822F48032C2
:1008E0001A601A6822F480221A6037E09B4B5B681A
:1008F00013F4803FE7D0994B1B6813F4003F03D0FB
:100900006368002B00F0AE81236813F0020F76D0ED
:10091000924B5B6813F00C0F5FD0904B5B6803F059
:100920000C03082B54D02369002B00F08A808C4BD9
:1009300001221A60FFF732FC0546884B1B6813F052
:10094000020F75D1FFF72AFC401B0228F5D90320BE
:100950008BE1824A136843F480331360636843B3C6
:10096000FFF71CFC05467D4B1B6813F4003FCBD101
:10097000FFF714FC401B6428F5D9032075E1B3F59B
:10098000A02F09D0754B1A6822F480321A601A68B9
:1009900022F480221A60E1E703F18043A3F53C339F
:1009A0001A6842F480221A601A6842F480321A608F
:1009B000D4E7FFF7F3FB0546684B1B6813F4003FD1
:1009C000A2D0FFF7EBFB401B6428F5D903204CE1D4
:1009D000624B5B6813F4803FA5D1604B1B6813F03A
:1009E000020F04D02369012B01D001203DE15B4AB5
:1009F000136823F0F803616943EAC10313602368B5
:100A000013F0080F32D0A369002B5BD0554B0122A5
:100A10001A60FFF7C3FB0546504B5B6A13F0020FE9
:100A200021D1FFF7BBFB401B0228F5D903201CE1B5
:100A30004A4A136823F0F803616943EAC10313606B
:100A4000DDE7474B00221A60FFF7A8FB0546434B42
:100A50001B6813F0020FD2D0FFF7A0FB401B022847
:100A6000F5D9032001E10120FFF704FF236813F00B
:100A7000040F00F09780394BDB6913F0805F33D1AE
:100A8000364BDA6942F08052DA61DB6903F0805359
:100A90000193019B0125344B1B6813F4807F25D003
:100AA000E368012B36D0002B4CD103F1804303F5D2
:100AB00004331A6A22F001021A621A6A22F004024E
:100AC0001A622CE0274B00221A60FFF767FB0546ED
:100AD000224B5B6A13F0020FC8D0FFF75FFB401B8D
:100AE0000228F5D90320C0E00025D4E71E4A136888
:100AF00043F480731360FFF751FB06461A4B1B68E3
:100B000013F4807FCCD1FFF749FB801B6428F5D913
:100B10000320AAE0114A136A43F001031362E36859
:100B200073B3FFF73BFB06460C4B1B6A13F0020F37
:100B300037D1FFF733FB801B41F288339842F3D95A
:100B4000032092E0052B11D0044B1A6A22F0010217
:100B50001A621A6A22F004021A62E0E700100240E8
:100B6000000042428004424200700040414B1A6A39
:100B700042F004021A621A6A42F001021A62CEE7D7
:100B8000FFF70CFB06463B4B1B6A13F0020F08D025
:100B9000FFF704FB801B41F288339842F3D903200E
:100BA00063E0E5B9E369002B5ED0324A526802F097
:100BB0000C02082A5BD0022B17D02F4B00221A60A0
:100BC000FFF7ECFA04462B4B1B6813F0007F47D06D
:100BD000FFF7E4FA001B0228F5D9032045E0254A77
:100BE000D36923F08053D361DCE7234B00221A60E2
:100BF000FFF7D4FA05461F4B1B6813F0007F06D0A1
:100C0000FFF7CCFA401B0228F5D903202DE0236A18
:100C1000B3F5803F1AD017494B6823F47413226A46
:100C2000606A024313434B60134B01221A60FFF7C3
:100C3000B5FA04460F4B1B6813F0007F0ED1FFF787
:100C4000ADFA001B0228F5D903200EE0094A5368CB
:100C500023F40033A1680B435360DCE7002004E079
:100C6000002002E0012000E0002002B070BD012061
:100C7000FBE700BF001002406000424210B487B0A2
:100C8000164C94E80F000DF1180C0CE90F00238AA4
:100C9000ADF80430124B5B6803F00C02082A1AD13D
:100CA000C3F38342624412F8102C13F4803F05D141
:100CB0000C4800FB02F007B010BC7047084B5B68A3
:100CC000C3F34043634413F8143C074800FB02F0AD
:100CD000B0FBF3F0EFE70448EDE700BFB4420008D3
:100CE0000010024000093D0000127A00624B1B68B0
:100CF00003F007038B420CD25F4A136823F007030B
:100D00000B431360136803F007038B4201D00120EB
:100D1000704770B5036813F0020F17D013F0040F7B
:100D200004D0564A536843F4E0635360036813F0F9
:100D3000080F04D0514A536843F4605353604F4A3C
:100D4000536823F0F0038468234353600D46044640
:100D5000036813F0010F52D04368012B23D0022BFC
:100D600028D0464A126812F0020F00F082804349F0
:100D70004A6822F0030213434B60FFF70FFA06465E
:100D80006368012B1DD0022B2AD03C4B5B6813F00B
:100D90000C0F34D0FFF702FA801B41F288339842DF
:100DA000F3D9032064E0354A126812F4003FDED123
:100DB00001205DE0314A126812F0007FD7D1012096
:100DC00056E02E4B5B6803F00C03042B17D0FFF7A3
:100DD000E5F9801B41F288339842F2D9032047E0BD
:100DE000264B5B6803F00C03082B08D0FFF7D6F9FD
:100DF000801B41F288339842F2D9032038E01E4B21
:100E00001B6803F00703AB420CD91B4A136823F09D
:100E100007032B431360136803F00703AB4201D0B1
:100E2000012025E0236813F0040F06D0134A53680D
:100E300023F4E063E1680B435360236813F0080F69
:100E400007D00E4A536823F46053216943EAC10373
:100E50005360FFF713FF094B5B68C3F30313084AA2
:100E6000D35CD840074B1860002002F031FC002012
:100E700070BD0120FCE700BF0020024000100240CE
:100E8000F442000818000020014B1868704700BFAA
:100E90001800002008B5FFF7F7FF044B5B68C3F3A9
:100EA0000223034AD35CD84008BD00BF00100240B3
:100EB0000443000808B5FFF7E7FF044B5B68C3F382
:100EC000C223034AD35CD84008BD00BF00100240D3
:100ED000044300080F2303600B4B5A6802F003021F
:100EE00042605A6802F0F00282605A6802F4E062DE
:100EF000C2605B68DB0803F4E0630361034B1B68BB
:100F000003F007030B60704700100240002002400E
:100F100070B582B00446036813F0010F34D03E4B25
:100F2000DB6913F0805F48D13B4BDA6942F08052B5
:100F3000DA61DB6903F080530193019B0125374B94
:100F40001B6813F4807F3AD0334B1B6A13F4407351
:100F500011D0626802F440729A420CD02E4A136A91
:100F600023F440702E4901260E6000260E601062A8
:100F700013F0010F37D1284A136A23F440736168D4
:100F80000B431362002D3FD1236813F0020F06D0EC
:100F9000214A536823F44043A1680B4353602368FC
:100FA00013F0100F35D01C4A536823F48003E16816
:100FB0000B435360002002B070BD0025BFE7174A05
:100FC000136843F480731360FFF7E8F80646134B89
:100FD0001B6813F4807FB7D1FFF7E0F8801B64280B
:100FE000F5D90320E7E7FFF7D9F806460A4B1B6A55
:100FF00013F0020FBFD1FFF7D1F8801B41F2883305
:101000009842F3D90320D6E7D36923F08053D36104
:10101000BAE70020CFE700BF001002400070004098
:1010200040044242F8B505460F4616461C463BE0D2
:101030002CB1FFF7B3F8069BC01AA04234D32A683C
:10104000536823F0E00353606B68B3F5827F0BD0E5
:10105000AB6AB3F5005F14D0012385F8513000234B
:1010600085F85030032027E0AB68B3F5004F02D07D
:10107000B3F5806FECD12A68136823F04003136046
:10108000E6E72A68136823F400531B041B0C136063
:101090002A68136843F400531360DDE70123B34269
:1010A00009D0B4F1FF3FC3D12B689B6837EA030333
:1010B000F4D00023F3E70020F8BD10B582B0044659
:1010C00000920B4600228021FFF7ACFF034610B9C7
:1010D000184602B010BD636D43F02003636503231F
:1010E000F6E72DE9F04385B099460C9D90F8503015
:1010F000012B00F0108104460F461646012380F8AC
:101100005030FFF74BF8804694F85130DBB26268FC
:10111000012B15D0B2F5827F0AD00223012284F878
:101120005120002284F85020184605B0BDE8F08315
:10113000A268002A40F0E780042B01D00223EDE7EB
:10114000002F00F0E280002E00F0E180B9F1000FE6
:1011500000F0DF8094F85130DBB2012B2BD000235C
:101160006365A663A4F83E90A4F83C902763A4F8B6
:101170003690A4F834902364636423681A6812F0EC
:10118000400F03D11A6842F040021A60E368B3F5D9
:10119000006F14D063681BB1E38E9BB2012B07D1A3
:1011A000236817F8012B1A73E38E013B9BB2E38689
:1011B0004FF0010961E0052384F85130CFE76368FF
:1011C0001BB1E38E9BB2012B07D1236837F8022BAA
:1011D000DA60E38E013B9BB2E3864FF0010913E036
:1011E000E38F9BB26BB123689A6812F0010F08D0AD
:1011F000DB6826F8023BE38F013B9BB2E3874FF0AD
:101200000109B5F1FF3F1CD1E38E9BB21BB9E38FFF
:101210009BB2002B55D0B9F1000FE1D0E38E9BB209
:10122000002BDDD023689A6812F0020FD8D037F86F
:10123000022BDA60E38E013B9BB2E3864FF000099C
:10124000CEE7FEF7ABFFA0EB0800A842DCD30323F8
:1012500064E7E38F9BB26BB123689A6812F0010FC9
:1012600008D0DB683370E38F013B9BB2E387013624
:101270004FF00109B5F1FF3F1BD1E38E9BB213B9CB
:10128000E38F9BB2EBB1B9F1000FE2D0E38E9BB2DA
:10129000002BDED023689A6812F0020FD9D03A787A
:1012A0001A73E38E013B9BB2E38601374FF00009CE
:1012B000CFE7FEF773FFA0EB0800A842DDD30323BE
:1012C0002CE7CDF800802B46012202212046FFF7B3
:1012D000A9FE08B1032321E7424629462046FFF72D
:1012E000ECFE034618B120236365012316E7A268CC
:1012F000002A7FF413AF03922268D16803919268A9
:101300000392039A0AE7022308E7012306E7012371
:1013100004E7012302E7022306E700283CD010B5CA
:1013200004460023836290F85130002B31D0022311
:1013300084F851302268136823F040031360636817
:10134000A2681343E268134322691343626913439B
:10135000A26902F400721343E2691343226A134341
:10136000A16A22680B431360638B03F00403616A74
:1013700022680B4353602368E26A1A612268D369CA
:1013800023F40063D36100206065012384F85130A9
:1013900010BD02F0E9F8CAE70120704770B4036A93
:1013A00023F001030362036A4268846924F0730432
:1013B0000D6845EA040623F002048B6823430D4DB3
:1013C000A84209D00B4DA8420DD0426086614A6800
:1013D0004263036270BC704723F00803CC68234368
:1013E00023F00403EEE722F440724C6914438A6947
:1013F0002243EAE7002C014030B4036A23F48073EF
:101400000362036A4268C46924F073040D682C43C4
:1014100023F400738D6843EA05230F4DA84209D0D9
:101420000D4DA8420ED04260C4614A68C263036297
:1014300030BC704723F40063CD6843EA052323F4EE
:101440008063EDE722F440524D6942EA05128D694E
:1014500042EA0512E7E700BF002C014030B4036AFE
:1014600023F480530362036A4468C26922F4E642AB
:101470000D6842EA052223F400538D6843EA0533E0
:10148000074DA84206D04460C2614A680264036204
:1014900030BC704724F480444D6944EA8514F2E777
:1014A000002C014070470268D36843F00103D36009
:1014B0000268136843F0010313600020704770470F
:1014C00070477047704710B5044603681A6912F0F8
:1014D000020F11D0DA6812F0020F0DD06FF0020285
:1014E0001A610123037703689B6913F0030F70D01F
:1014F000FFF7E6FF0023237723681A6912F0040F31
:1015000012D0DA6812F0040F0ED06FF004021A61E4
:101510000223237723689B6913F4407F5FD0204622
:10152000FFF7CEFF0023237723681A6912F0080F14
:1015300012D0DA6812F0080F0ED06FF008021A61AC
:10154000042323772368DB6913F0030F4ED0204672
:10155000FFF7B6FF0023237723681A6912F0100FF4
:1015600012D0DA6812F0100F0ED06FF010021A616C
:10157000082323772368DB6913F4407F3DD020469E
:10158000FFF79EFF0023237723681A6912F0010FEB
:1015900003D0DA6812F0010F36D123681A6912F00D
:1015A000800F03D0DA6812F0800F34D123681A69F3
:1015B00012F0400F03D0DA6812F0400F32D12368E6
:1015C0001A6912F0200F03D0DA6812F0200F30D120
:1015D00010BDFFF774FF2046FFF773FF8AE7204630
:1015E000FFF76DFF2046FFF76CFF9BE72046FFF7F4
:1015F00066FF2046FFF765FFACE72046FFF75FFF79
:101600002046FFF75EFFBDE76FF001021A6120463A
:1016100001F0A6FDC1E76FF080021A61204600F0DC
:101620006BF9C3E76FF040021A612046FFF74AFFEB
:10163000C5E76FF020021A61204600F05CF9C7E7A9
:1016400003681B4A90420AD0B0F1804F07D0A2F540
:101650009432904203D002F58062904203D123F08D
:1016600070034A681343124A90420AD0B0F1804F87
:1016700007D0A2F59432904203D002F580629042E6
:1016800003D123F44073CA68134323F080034A69EB
:10169000134303608B68C3620B688362044B9842F8
:1016A00002D00123436170470B690363F9E700BF70
:1016B000002C0140A8B110B5044690F83D305BB154
:1016C000022384F83D30211D2068FFF7B9FF012374
:1016D00084F83D30002010BD80F83C30FFF7E2FE7A
:1016E000EEE701207047A8B110B5044690F83D30F0
:1016F0005BB1022384F83D30211D2068FFF7A0FF75
:10170000012384F83D30002010BD80F83C3001F00A
:1017100065FFEEE70120704730B4036A23F0100341
:101720000362036A4468826922F4E6420D6842EA71
:10173000052223F020038D6843EA05130E4DA842CD
:1017400009D00D4DA8420ED0446082614A68826380
:10175000036230BC704723F08003CD6843EA051371
:1017600023F04003EDE724F440644D6944EA850426
:101770008D6944EA8504E7E7002C014038B590F80C
:101780003C30012B66D00D460446012380F83C30E6
:10179000022380F83D300C2A1AD8DFE802F007193E
:1017A0001919201919193419191947000068FFF778
:1017B000F5FD2268936943F00803936122689369F9
:1017C00023F0040393612268936929690B439361B1
:1017D000012384F83D30002084F83C0038BD0068C7
:1017E000FFF79AFF2268936943F4006393612268CC
:1017F000936923F48063936122689369296943EABA
:1018000001239361E4E70068FFF7F6FD2268D369DE
:1018100043F00803D3612268D36923F00403D36142
:101820002268D36929690B43D361D1E70068FFF7C8
:1018300015FE2268D36943F40063D3612268D3693B
:1018400023F48063D3612268D369296943EA0123C1
:10185000D361BDE70220C1E710B4012303FA01F40C
:10186000036A23EA04030362036A8A4013430362A0
:1018700010BC704710B5044601220068FFF7ECFF6A
:101880002368074A934206D02268136843F0010395
:101890001360002010BD5A6C42F400425A64F3E712
:1018A000002C014090F83C30012B22D030B40122B2
:1018B00080F83C20022380F83D300468636823F000
:1018C00070036360046863680D682B436360046899
:1018D000A36823F08003A3600468A36849680B43EE
:1018E000A36080F83D20002380F83C30184630BCCF
:1018F0007047022070477047704700002DE9F84399
:1019000005460268136923F44053C1680B43136111
:10191000836802691343426913430168CA6822F469
:10192000B05222F00C021343CB600268536923F4D7
:10193000407381690B4353610268594B9A4257D0F7
:10194000FFF7A8FA00EB800000EB80006C68A400B1
:10195000B0FBF4F4534FA7FB043464092601FFF7EE
:1019600099FA00EB800000EB80006C68A400B0FBEB
:10197000F4F9FFF78FFA00EB800000EB80006C6851
:10198000A400B0FBF4F4A7FB043464094FF064082E
:1019900008FB149424013234A7FB0434640904F0D6
:1019A000F0043444FFF776FA00EB800000EB80008F
:1019B0006E68B600B0FBF6F6FFF76CFA00EB80003D
:1019C00000EB80006B689B00B0FBF3F0A7FB0030DE
:1019D000400908FB10684FEA081808F13208A7FB15
:1019E0000837C7F343172B6827449F60BDE8F88387
:1019F000FFF760FA00EB800000EB80006C68A40049
:101A0000B0FBF4F4274FA7FB043464092601FFF769
:101A100051FA00EB800000EB80006C68A400B0FB82
:101A2000F4F9FFF747FA00EB800000EB80006C68E8
:101A3000A400B0FBF4F4A7FB043464094FF064087D
:101A400008FB149424013234A7FB0434640904F025
:101A5000F0043444FFF72EFA00EB800000EB800026
:101A60006E68B600B0FBF6F6FFF724FA00EB8000D4
:101A700000EB80006B689B00B0FBF3F0A7FB00302D
:101A8000400908FB10684FEA081808F13208A7FB64
:101A90000837C7F343172B6827449F60A6E700BFAA
:101AA000003801401F85EB512DE9F04105460F46F6
:101AB00016469846069C2B681B6837EA03030CBF42
:101AC00001230023B3421DD1B4F1FF3FF3D02CB169
:101AD000FEF764FBA0EB0800A042ECD92A68D368AB
:101AE00023F4D073D3602A68536923F00103536150
:101AF000202385F8393085F83A30002385F83830CE
:101B0000032000E00020BDE8F08158B310B5044682
:101B100090F839300BB3242384F839302268D36825
:101B200023F40053D3602046FFF7E8FE22681369D0
:101B300023F4904313612268536923F02A0353610D
:101B40002268D36843F40053D3600020E06320236D
:101B500084F8393084F83A3010BD80F8383001F01C
:101B60007BFDD8E7012070472DE9F04182B01E4689
:101B700090F83930DBB2202B55D104460D46904603
:101B8000002955D0002A55D090F83830012B53D079
:101B9000012380F838300023C363212380F83930D3
:101BA000FEF7FCFA0746A4F82480A4F8268010E08B
:101BB00000963B46002280212046FFF775FF002853
:101BC0003CD12B882268C3F3080353602369C3B94F
:101BD0000235E38C9BB2B3B1E38C013B9BB2E3844F
:101BE000A368B3F5805FE3D000963B4600228021D6
:101BF0002046FFF759FF18BB2A7823685A60013541
:101C0000E7E70135E5E700963B4600224021204604
:101C1000FFF74AFF0346A8B9202284F839200022A2
:101C200084F8382000E00223184602B0BDE8F081B5
:101C30000123F9E70123F7E70223F5E70323F3E79D
:101C40000323F1E70323EFE7842801D00330704733
:101C50000020704708B500F0C1F9002008BDF0B5BC
:101C600085B00F46446805680669B0F90800FFF7BB
:101C7000EBFF03AB019300903B46B2B229462046EE
:101C800000F07AF9012802D1039805B0F0BD0020D8
:101C9000FBE708B5034600B90123184600F0E0FA57
:101CA000002008BD00F1080343604FF0FF3282605E
:101CB000C360036100230360704700230361704722
:101CC00043684B609A688A609A68516099600861BD
:101CD000036801330360704730B40D68B5F1FF3F0E
:101CE00002D000F1080202E0026904E01A465368DB
:101CF0001C68AC42FAD953684B6099608A605160A5
:101D0000086103680133036030BC704703694268AF
:101D1000816891608268416851605A68824205D04A
:101D200000220261186801381860704782685A60A2
:101D3000F6E70000074B9B6A1B6833B1054B9A6AB4
:101D4000D268D2685268DA627047024B4FF0FF32B5
:101D5000DA6270479C00002010B50446006B00F06A
:101D600029FD204600F026FD10BD2DE9F0478046F4
:101D70009946089D099F0A9C266B02F18042013A10
:101D800006EB820626F0070600230F2B07D8C85C57
:101D9000E21882F83400CA5C0AB10133F5E7002387
:101DA00084F84330062D00D90625E56265644FF0BE
:101DB000000AC4F848A0201DFFF77FFF04F11800B7
:101DC000FFF77BFF2461C5F10705A5616462C4F8D4
:101DD0004CA084F850A04A464146304600F016FB1D
:101DE000206007B13C60BDE8F087000070B50024BA
:101DF00007E004EB8402930010481844FFF752FFF9
:101E00000134062CF5D90E4C04F1BC063046FFF720
:101E100049FF04F1D0052846FFF744FF04F1140000
:101E2000FFF740FF04F1E400FFF73CFF2046FFF717
:101E300039FFA662C4F8F85070BD00BFCC00002086
:101E40009C00002038B5054600F004FB264BD3F873
:101E5000FC200132C3F8FC20D3F8003173B1224BCF
:101E6000D3F804318BB9204BD3F80031DA6AEB6A2E
:101E70009A420AD81C4BC3F8005106E01A4BC3F82B
:101E80000051D3F8FC30012B2AD0174CD4F808317C
:101E90000133C4F80831EB6A01229A40D4F80C11DE
:101EA0000A43C4F80C2104F1300003EB83039A00C9
:101EB000291D1044FFF704FF00F0EEFAD4F80431B6
:101EC0006BB1D4F80031DA6AEB6A9A4207D2074B59
:101ED0004FF080521A60BFF34F8FBFF36F8F38BD42
:101EE000FFF784FFD1E700BF9C00002004ED00E075
:101EF00070B504460E461F4BD3F81051D3F80001BD
:101F00000430FFF703FF60B91A4BD3F80021D16A00
:101F1000012202FA01F1D3F80C2122EA0102C3F8EE
:101F20000C21B4F1FF3F12D02C44124BD3F80031F6
:101F30005C60A54214D80F4DA86AD5F80011043191
:101F4000FFF7CAFEEB6AA34212D9EC6210E0002E42
:101F5000EAD00848D0F800110431FFF7B1FE07E0DD
:101F6000044BD3F8F800D3F800110431FFF7B4FEA6
:101F700070BD00BF9C0000202DE9F04385B00746EE
:101F8000884615469946900000F08EFBF8B106464B
:101F9000542000F089FB0446A8B10663D4B10023A5
:101FA000039302940D9B01930C9B00934B462A468E
:101FB00041463846FFF7D9FE2046FFF743FF012090
:101FC00005B0BDE8F083304600F0F4FBE6E74FF0E3
:101FD000FF30F5E74FF0FF30F2E7000000B583B0C7
:101FE000174B019300230093802216491648FFF7F0
:101FF000C3FF012805D0B0F1FF3F17D003B05DF853
:1020000004FB4FF0500383F31188BFF36F8FBFF3CE
:102010004F8F0E4B4FF0FF32DA620122C3F80421DA
:102020000022C3F8102100F0A1FAE7E74FF05003B7
:1020300083F31188BFF36F8FBFF34F8FFEE700BFAD
:10204000B80100200C430008012300089C00002078
:10205000034AD2F818310133C2F81831704700BF73
:102060009C0000202DE9F041404BD3F81831002BA3
:102070006CD13E4BD3F810510135C3F81051CDB996
:102080009B6A1B6843B14FF0500383F31188BFF381
:102090006F8FBFF34F8FFEE7344B9A6AD3F8F81077
:1020A0009962C3F8F820D3F820210132C3F8202127
:1020B000FFF740FE2D4BDB6AAB423DD900242B4A93
:1020C000D2F80031DB6A03EB830399000A44136BF7
:1020D000012B42D9012440E00124244B9B6A1B6858
:1020E00063B3224B9B6ADB68DE6873689D422AD328
:1020F00006F104084046FFF709FEB36A1BB106F17A
:102100001800FFF703FEF36A01229A40174FD7F831
:102110000C110A43C7F80C2107F1300003EB8303CD
:102120009A0041461044FFF7CBFDF26AD7F8003120
:10213000DB6A9A42D0D2D0E70024CEE70B4B4FF0B7
:10214000FF32DA62BBE7094AD362B8E7074AD2F83E
:1021500024310133C2F824310024044BD3F8283150
:1021600003B101242046BDE8F08100BF9C0000209F
:10217000394BD3F8183143B94FF0500383F311882A
:10218000BFF36F8FBFF34F8FFEE770B500F062F9BA
:10219000314BD3F81821013AC3F81821D3F818317C
:1021A000002B54D12C4BD3F8FC3023B9002400F081
:1021B00073F9204670BD0024274B5B692BB3264D75
:1021C0002B6ADC6804F11800FFF7A0FD261D3046DD
:1021D000FFF79CFDE36A01229A40D5F80C110A43EF
:1021E000C5F80C2105F1300003EB83039A0031465A
:1021F0001044FFF765FDE26AD5F80031DB6A9A42C8
:10220000DAD30122C5F82821D6E70CB1FFF792FDF9
:10221000114BD3F8244164B1FFF724FF18B10E4BE2
:102220000122C3F82821013CF6D10B4B0022C3F850
:102230002421094BD3F828315BB1084B4FF0805271
:102240001A60BFF34F8FBFF36F8F0124AFE70024F5
:10225000ADE70024ABE700BF9C00002004ED00E0E8
:1022600010B5B0B104460F4BD3F8183143B14FF05D
:10227000500383F31188BFF36F8FBFF34F8FFEE7D7
:10228000FFF7E6FE00212046FFF732FEFFF770FF62
:1022900038B9054B4FF080521A60BFF34F8FBFF330
:1022A0006F8F10BD9C00002004ED00E038B5134B8B
:1022B000D3F814310BB3FFF7CBFE104BD3F8E44047
:1022C000FFF756FF002CF2D000F0C4F80B4CD4F806
:1022D000F030DD68281DFFF719FDD4F8FC30013B14
:1022E000C4F8FC30D4F81431013BC4F8143100F0C8
:1022F000D3F82846FFF730FDD9E738BD9C00002011
:1023000008B5FFF7D3FF064B1B6B012BF9D9054B23
:102310004FF080521A60BFF34F8FBFF36F8FF0E71B
:102320009C00002004ED00E0224BD3F8183123B1CB
:10233000204B0122C3F8282170471E4A0023C2F80F
:102340002831D2F80C31B3FA83F3DBB2C3F11F03A7
:1023500003EB830081000A44126B42B94FF0500333
:1023600083F31188BFF36F8FBFF34F8FFEE710B475
:10237000104A9900CC18A0001044446B6468446370
:102380003032194488000830024494420AD0094986
:1023900003EB83039A000A44536BDB68C1F80031F6
:1023A00010BC704761680348142202FB03025163AA
:1023B000EDE700BF9C0000200B4B1B68B3F1FF3F13
:1023C00008D04FF0500383F31188BFF36F8FBFF332
:1023D0004F8FFEE74FF0500383F31188BFF36F8FE9
:1023E000BFF34F8FFEE700BF0800002006480068DB
:1023F000006880F3088862B661B6BFF34F8FBFF301
:102400006F8F00DF00BF000008ED00E04FF0807329
:1024100040F8043C21F0010140F8081C034B40F84F
:102420000C3C40F8202C4038704700BFB92300080E
:10243000074B19680868B0E8F00F80F30988BFF30C
:102440006F8F4FF0000080F311884EF00D0E704733
:102450009C0100204FF0500383F31188BFF36F8F6E
:10246000BFF34F8F0A4A136801331360012B00D06A
:102470007047084B1B6813F0FF0FF9D04FF0500363
:1024800083F31188BFF36F8FBFF34F8FFEE700BF59
:102490000800002004ED00E0094B1B6843B94FF031
:1024A000500383F31188BFF36F8FBFF34F8FFEE7A5
:1024B000013B034A13600BB983F31188704700BFD7
:1024C00008000020000000000000000000000000E4
:1024D000EFF30980BFF36F8F0D4B1A6820E9F00FFF
:1024E00010602DE908404FF0500080F31188FFF78D
:1024F0001BFF4FF0000080F31188BDE80840196809
:102500000868B0E8F00F80F30988BFF36F8F704759
:102510009C01002008B54FF0500383F31188BFF3EE
:102520006F8FBFF34F8FFFF79DFD18B1034B4FF037
:1025300080521A60002383F3118808BD04ED00E087
:10254000064B1B68064AA2FB03239B09013B054A75
:102550001360054B07221A60704700BF1800002067
:10256000D34D621014E000E010E000E000B583B04D
:102570001E4B1A78D2B20192FF221A701B78DBB27E
:102580008DF803309DF8033003F05003184A1370A0
:102590000723536009E0164A5368013B53609DF8D6
:1025A00003305B00DBB28DF803309DF8033013F08D
:1025B000800FF0D10E4A53681B0203F4E0635360AE
:1025C000019BDBB2094A13700A4B1A6842F470028D
:1025D0001A601A6842F070421A60FFF7B1FF064BAA
:1025E00000221A60FFF702FFFFF7E6FE00E400E0BA
:1025F000C801002020ED00E008000020134A12F07E
:10260000070F20D0D11D21F00701C1F5406313440D
:102610000A460E49C1F8002C0020C1F8040C1344EE
:10262000083B23F00703C1F8083C58601860981A6B
:1026300050601360C1F80C0CC1F8100C4FF000434F
:10264000C1F8143C70474FF44063E2E7D00100202A
:1026500010B4134B1A6882421BD359685C18844229
:1026600003D1406801445960184641684418A242A9
:1026700013D10C4CD4F8084CA2420CD0526811442F
:1026800041601A6812680260984200D0186010BC5D
:1026900070471346DEE70460F6E70260F4E700BF28
:1026A000D00D0020D001002070B50446FFF7D0FC0B
:1026B0003F4BD3F8083CC3B13D4BD3F8143C1C420C
:1026C0006CD1ACB1083414F0070F11D024F007041A
:1026D000083404F007035BB14FF0500383F3118813
:1026E000BFF36F8FBFF34F8FFEE7FFF787FFE3E77F
:1026F000002C55D02E4BD3F8103CA34252D32C4B78
:10270000D3F8005C03F5406301E02B4615466A6888
:10271000A24202D22A68002AF7D1254AD2F8082C10
:10272000AA4241D01E6808362A681A606B681B1BD3
:10273000102B10D9281910F0070F08D04FF05003B4
:1027400083F31188BFF36F8FBFF34F8FFEE74360B2
:102750006C60FFF77DFF6968154AD2F8103C5B1A80
:10276000C2F8103CD2F80C2C934202D2104AC2F8A4
:102770000C3C0F4BD3F8143C0B436B6000232B60D5
:10278000FFF7F6FC16F0070F10D04FF0500383F35D
:102790001188BFF36F8FBFF34F8FFEE70026EFE77F
:1027A0000026EDE70026EBE70026E9E7304670BD9E
:1027B000D001002098B338B50446A0F1080550F8C0
:1027C000042C1749D1F8141C0A4208D14FF05003C9
:1027D00083F31188BFF36F8FBFF34F8FFEE750F87D
:1027E000080C40B14FF0500383F31188BFF36F8F93
:1027F000BFF34F8FFEE722EA010244F8042CFFF7F3
:1028000027FC54F8041C064AD2F8103C0B44C2F8CA
:10281000103C2846FFF71CFFFFF7AAFC38BD7047A5
:10282000D00100201C291BD9C389B3F5807F01D0BA
:1028300000207047038A082B01D00020704710B594
:10284000044604220949263001F0FEF850B9A38A53
:10285000B3F5807F08D0B3F5007F04D1022002E0F9
:1028600000207047002010BD0120FCE7140000206C
:102870002DE9F04389B004464FF400738382034688
:1028800053F8162F02629A888284324A1168C0F87F
:10289000161092889A80C369C0F826302E4B1B68A8
:1028A000C3611C2100F0A2FC22786378A178E07853
:1028B0002679677994F826C094F827E094F8288060
:1028C00094F82990254DCDF81C90CDF81880CDF8BE
:1028D00014E0CDF810C003970296019000912049B2
:1028E000284601F0D3F82846FDF732FC1D4E4FF480
:1028F000805382B229463046FFF736F9A279E37950
:10290000217A607AA77A94F80BC094F81CE094F8C6
:102910001D8094F81E90E47F0794CDF81890CDF8B0
:102920001480CDF810E0CDF80CC002970190009112
:102930000D49284601F0AAF82846FDF709FC4FF496
:10294000805382B229463046FFF70EF909B0BDE840
:10295000F08300BF0C00002014000020F80D0020C0
:1029600014430008640F0020404300082DE9F0479D
:102970008AB0284B9B791C0127496218C5696550AC
:1029800050F8161F51608188118124490968D1606F
:10299000032B04D801331F4A9371002435E01D4BEB
:1029A00000229A71F9E71C4A2301D118D25C4B78B6
:1029B0008878CE780F7991F805C091F806E091F803
:1029C000078091F8089091F809A0C968144D089102
:1029D000CDF81CA0CDF81890CDF81480CDF810E0FB
:1029E000CDF80CC00297019600900E49284601F0E0
:1029F0004DF82846FDF7ACFB4FF4805382B22946D0
:102A00000948FFF7B1F80134E4B2042CCBD90AB07D
:102A1000BDE8F087E80D00204C0E0020340E0020A9
:102A2000F80D00207C430008640F002008B5002248
:102A30004FF400510148FDF751FE08BD0010014060
:102A400000B587B08DF80F0006AA002302F8013DFB
:102A50004FF48053009301230DF10F010548FEF759
:102A600040FB20B99DF8170007B05DF804FBFFF7A5
:102A7000DDFFF7E7A40F002008B5FFF7E1FF08BD71
:102A800070B505460E46002210210C48FDF726FEC3
:102A90003A20FFF7F1FF06E0751C0020FFF7D0FF9A
:102AA00030702E4625466B1E9CB2002DF4D10122BB
:102AB00010210248FDF712FE70BD00BF0008014062
:102AC00070B505460E46002210210B48FDF706FEA4
:102AD0007A20FFF7D1FF05E0751C3078FFF7CCFFB7
:102AE0002E4625466B1E9CB2002DF5D101221021E9
:102AF0000148FDF7F3FD70BD0008014008B5FF2057
:102B0000FFF79EFF08BD000038B505460C460022C1
:102B100010210D48FDF7E2FD64B204F01F002843C8
:102B2000FFF7AAFF0020FFF7A7FF002C09DBFFF744
:102B3000E5FF0446012210210348FDF7CFFD2046A2
:102B400038BDFFF7DBFFF2E700080140F8B50746A4
:102B50000C461646094D002210212846FDF7BEFD01
:102B600004F01F003843FFF787FF3046FFF784FF6C
:102B7000012210212846FDF7B1FDF8BD00080140F3
:102B800010B500F06004084B1B78A3420BD0032261
:102B90001F21A020FFF7DAFF034B1C7062091F21E1
:102BA0008020FFF7D3FF10BDF00D002010B50446C4
:102BB000FFF7E6FF21460020FFF7A6FF10BD38B55E
:102BC00004460D46FFF7DCFF2A4621464020FFF76A
:102BD000BDFF38BD10B50C460146D420FFF7EFFF0E
:102BE000E1B2D620FFF7EBFFEA20FFF7DFFF10F09E
:102BF000010FF9D110BD38B504460D46C9B2FFF733
:102C0000DEFF601C290AC0B2FFF7D9FF38BD000003
:102C100010B501224FF400514648FDF75FFD002238
:102C2000FF210846FFF792FF0220FDF7BDFA1D21A4
:102C30000020FFF769FF0028F9D000210820FFF7E6
:102C4000DAFF00210C20FFF7D6FF40F6FF310A2003
:102C5000FFF7D1FF4FF440610420FFF7CCFF41F2B2
:102C6000FF110620FFF7C7FF3820FFF79FFF40F056
:102C70000101C9B23820FFF7A2FF0D21C020FFF7E4
:102C80009EFF0021C120FFF79AFF3222C22180203F
:102C9000FFF75CFF40F61241C620FFF7ACFF1221A0
:102CA000C420FFF78CFF40F2DC51CA20FFF7A3FFDE
:102CB000214C2178E420FFF782FF6178E520FFF7BF
:102CC0007EFFA178E220FFF77AFFE178E320FFF7AB
:102CD00076FF2179E020FFF772FF6179E120FFF7AD
:102CE0006EFF4FF480711020FFF774FF40F27641C1
:102CF0001420FFF76FFF1F20FFF742FFC0221B21A8
:102D00008020FFF723FF04221F218020FFF71EFFF2
:102D100002217520FFF753FF0F23084A1268084964
:102D2000A1FB0212520D03FB02F31A46013B002ADB
:102D3000FBD110BD001001400C0000201800002045
:102D40006BCA5F6B70B582B005460C463920FFF741
:102D50002DFF18B90024204602B070BD1B4EB1886B
:102D60000020FFF748FF69460620FFF789FEBDF8FF
:102D700000307360BDF80230043B9BB2A34200D820
:102D80001C46BDF8043013F0800F13D1002400233B
:102D90002B550E4B59684B1EB3F5406F0FDB40F6B9
:102DA000FF310C20FFF727FF40221E218020FFF774
:102DB000CDFED0E729462046FFF762FEE7E701395E
:102DC00089B20C20FFF717FFEEE700BFF00D0020DF
:102DD00038B505460C461F210020FFF795FE4FF43D
:102DE00040610220FFF707FF04F5406189B2062029
:102DF000FFF701FF06490120FFF762FE2946204642
:102E0000FFF75EFE08221F218020FFF79FFE38BDDE
:102E1000C8420008F0B589B00024049405940694D3
:102E200007942D4B9A6942F010029A619A6902F058
:102E300010020092009A9A6942F020029A619A69FF
:102E400002F020020192019A9A6942F004029A610A
:102E50009A6902F004020292029A9A6942F0080208
:102E60009A619B6903F008030393039B1B4F22465F
:102E70004FF400513846FDF731FC194D2246102120
:102E80002846FDF72BFC4FF40053049301260596CA
:102E900006940223079304A93846FDF735FB042363
:102EA0000493104B0593069404A92846FDF72CFBC8
:102EB00010230493059606940323079304A9284638
:102EC000FDF722FB224605210820FDF7DDFA082048
:102ED000FDF70EFB09B0F0BD0010024000100140EC
:102EE000000801400000211070B584B00025019554
:102EF000029503950B4C0C4B2360A560E560656162
:102F00004FF46023E3616560012626612046FDF7EA
:102F100021FA01950296039501A92046FDF758F97B
:102F200004B070BD340F00200024014008B50B48E8
:102F30000B4B03604FF48273436000238360C360D4
:102F4000036143614FF400728261C36103624362B3
:102F500083620A23C362FEF7E0F908BDA40F0020D4
:102F60000030014030B58BB00024089409940194DE
:102F7000029403940494059406940794104D114B05
:102F80002B606C60AC604FF6FF73EB602C61AC6142
:102F90002846FEF7A8FB0894099408A92846FEF7DE
:102FA00081FC60230193029403940594224601A9B5
:102FB0002846FEF7E3FB284600F026FB0BB030BDA9
:102FC000A00E00200008004008B50848084B036028
:102FD0004FF4E133436000238360C36003610C223C
:102FE00042618361C361FEF790FD08BD640F00205C
:102FF0000038014008B50948094B0360094B43609C
:1030000000238360C3604FF48042026143618361A7
:10301000C3610362FDF77AFB08BD00BFE00E00202C
:1030200000540040A086010010B500210B48FEF7B7
:1030300021FC0B4B4FF496725A6342F2107402E07B
:103040000520FEF726FE064BDC62643C41F27073FD
:103050009C42F5D842F21074F2E700BFA00E0020A7
:103060000008004008B54FF400510448FDF73CFB50
:103070004FF4FA70FEF70DFEF5E700BF00100140B7
:1030800030B595B0202200210CA800F0F7FC0024F8
:103090000594069407940894099401940294039467
:1030A000049401220A924FF480330B930E9202256E
:1030B000119512930AA8FDF7F3FB0F2305930695CC
:1030C000079408940994214605A8FDF70FFE019581
:1030D000039401A8FDF71CFF15B030BD00B58BB0FF
:1030E000FDF73EF8FFF7CCFFFFF794FEFFF7FCFE7D
:1030F000FFF71CFFFFF736FFFFF766FFFFF77AFFCA
:1031000001224FF400510F48FDF7E8FA00F034F8BF
:103110000D4C05AD26460FCE0FC533682B60002140
:1031200005A8FEF79CFD094B18606D4614340FCCC2
:103130000FC523682B6000216846FEF790FDFEF75F
:1031400089FDFEE700100140CC4200089C0E0020E3
:10315000042801D000BF704708B500F05FF908BD32
:1031600008B50268034B9A4200D008BDFDF70AF883
:10317000FBE700BF002C014008B5074B00221A7086
:103180001A755A754FF48053082204490448FEF713
:10319000EBFCFFF73DFD08BDFC0F0020C843000815
:1031A000640F002010B4012A01D000230AE001F1CD
:1031B000090307E00478427842EA0422134402300B
:1031C000023989B20029F5D101E09BB213441A0CEF
:1031D000FBD1180220F07F4222F0FF02C3F3072048
:1031E000104380B2C04380B210BC704738B503466C
:1031F00053F8064F04609C888480054C2568C0F80D
:103200000650A2889A800E3189B2FFF7E1FD38BDE1
:103210000C00002070B504460E460B0A43EA012359
:10322000038200258582802383750583D0F81A30B8
:10323000C0F81E30074B1B68C0F81A302A4614210C
:103240000E30FFF7AFFF208331462046FFF7CEFF59
:10325000284670BD14000020072905D900F122037B
:1032600090F82220082A01D000207047F0B587B0DE
:103270000C460546002280F8222082841846FFF77B
:1032800091FFA88404F1140189B22846FFF7C2FF18
:10329000AA7FEB7F95F8201095F82100AE7EEF7E97
:1032A00095F81CC06D7F0C4C0595CDF810C00397A8
:1032B0000296019000910949204600F0E7FB204664
:1032C000FCF746FF4FF4805382B221460448FEF7D4
:1032D0004BFC002007B0F0BDF80D0020D4430008DF
:1032E000640F0020837B452B01D00020704710B570
:1032F000044604220E491E3000F0A6FB68B9238A5A
:10330000190A41EA032189B2143989B2E37D012BFC
:1033100005D0062B01D0112B05D0002010BD204672
:10332000FFF79AFFF9E7204600F0A8FAF5E700BF9B
:10333000140000200E2968D92DE9F04F8FB00D46FA
:1033400004468389B3F5C16F48D0A289082A55D0B5
:10335000A3790C93E1790D91217A607AA67AE77AC4
:1033600094F800C094F801E094F8028094F8039077
:1033700094F804A094F805B013029BB2234C43EADE
:1033800012230B930A95CDF824B0CDF820A0CDF8E8
:103390001C90CDF81880CDF814E0CDF810C003973C
:1033A0000296019000910D9B0C9A1949204600F05D
:1033B0006DFB2046FCF7CCFE164D4FF4805382B2D5
:1033C00021462846FEF7D0FB4FF4805302221249D3
:1033D0002846FEF7C9FB0FB0BDE8F08F0E3989B261
:1033E000FFF720FA012805D00228AED12046FFF7CA
:1033F000BDFAAAE72046FFF73BFAA6E7A5F11401BC
:1034000089B22046FFF76EFFE5E77047F80D002010
:10341000FC430008640F0020F843000808B502E0F0
:103420000548FFF787FF4FF400710348FFF78AFC58
:1034300001460028F4D108BD1410002000B583B067
:10344000114B9A6942F001029A619A6902F00102F5
:103450000092009ADA6942F08052DA61DB6903F087
:1034600080530193019B00220F216FF00100FDF7B3
:103470000BF8064A536823F0E06343F0007353608F
:1034800003B05DF804FB00BF0010024000000140E3
:1034900000B587B000230293039304930593026859
:1034A000114B9A4202D007B05DF804FB03F56C4360
:1034B0009A6942F400729A619A6902F40072009269
:1034C000009A9A6942F004029A619B6903F004032E
:1034D0000193019B012302930323039302A9034851
:1034E000FDF712F8DFE700BF0024014000080140AB
:1034F00010B586B0002302930393049305930268EA
:10350000154B9A4201D006B010BD144CA36943F08C
:103510000803A361A36903F008030093009B4FF421
:1035200040730293122303930323059302A90C48CB
:10353000FCF7EAFF0B4A536843F0E06343F00203F1
:103540005360E36943F40013E361E36903F4001398
:103550000193019BD7E700BF0054004000100240D8
:10356000000C01400000014010B586B0002302931A
:103570000393049305930268164B9A4201D006B058
:1035800010BD03F560439A6942F480529A619A69CA
:1035900002F480520092009A9A6942F004029A6101
:1035A0009B6903F004030193019BA0230293022370
:1035B000039303230593084C02A92046FCF7A4FFBC
:1035C0004023029300230393049302A92046FCF7AF
:1035D0009BFFD4E700300140000801400268094B1E
:1035E0009A4200D0704782B003F50233DA6942F0A4
:1035F0000402DA61DB6903F004030193019B02B06A
:10360000704700BF0008004000B587B00023029358
:1036100003930493059302680D4B9A4202D007B0BE
:103620005DF804FB03F502339A6942F008029A61DF
:103630009B6903F008030193019B4023029302233B
:103640000393059302A90348FCF75EFFE7E700BF79
:1036500000080040000C014010B586B00023029322
:103660000393049305930268174B9A4201D006B066
:1036700010BD03F558439A6942F480429A619A69F1
:1036800002F480420092009A9A6942F004029A6120
:103690009B6903F004030193019B4FF400730293B1
:1036A0000223039303230593084C02A92046FCF749
:1036B0002BFF4FF48063029300230393049302A92A
:1036C0002046FCF721FFD2E7003801400008014006
:1036D00000B589B0002201461920FCF7D5FE19205B
:1036E000FCF706FF144B9A6942F400629A619B69E9
:1036F00003F400630193019B02A903A8FDF7EAFB11
:10370000FDF7D8FB0D4BA3FB00239B0C013B0C48A2
:103710000C4A026040F2E732C2604360002303615A
:103720008360FDF7C7FF18B1012009B05DF804FB05
:103730000348FDF7B8FEF8E70010024083DE1B43A4
:1037400014120020002C01407047FEE7FEE7FEE760
:10375000FEE7704708B50420FCF7CAFF08BD00006B
:1037600008B50248FDF7AFFE08BD00BF14120020E7
:1037700008B503460B4A126842B10A4A106803446E
:103780006A46934206D8074A136008BD054A0649AF
:103790001160F2E700F02EF90C2303604FF0FF30C8
:1037A000F3E700BF380E0020581200200F4B1A68B4
:1037B00042F001021A6059680D4A0A405A601A68BC
:1037C00022F0847222F480321A601A6822F4802275
:1037D0001A605A6822F4FE025A604FF41F029A607F
:1037E000044B4FF000629A60704700BF0010024027
:1037F0000000FFF800ED00E0F8B50446838C428C31
:103800008284438400F12A0C1A4F654607F1300E7A
:103810003E460FCE28606960AA60EB6037461035DF
:103820007645F5D13068286033792B716046FCF716
:103830008FFC85B205F108039BB21A0A42EA032302
:10384000E3840026268505F11001012289B204F1E6
:103850001A00FFF7A7FC208505F11C0189B220465C
:10386000FFF7D8FC4FF400510348FCF73DFF30460A
:10387000F8BD00BF44440008001001402DE9F04F9E
:103880008DB004460D468279C379017A407AA67AD2
:10389000E77A94F800C094F801E094F8028094F874
:1038A000039094F804A094F805B00A95CDF824B0DC
:1038B000CDF820A0CDF81C90CDF81880CDF814E0FC
:1038C000CDF810C00397029601900091304931481D
:1038D00000F0DCF82F48FCF73BFC2F4E4FF48053F0
:1038E00082B22C493046FEF73FF9A27EE37E217F6B
:1038F000607FA77F94F81FC094F820E094F821809F
:10390000CDF81480CDF810E0CDF80CC002970190EE
:10391000009122491F4800F0B9F81E48FCF718FC36
:103920004FF4805382B21B493046FEF71DF9618C7B
:103930000A0292B2A08C03029BB243EA102342EA2D
:1039400011221749134800F0A1F81248FCF700FCB7
:103950004FF4805382B20F493046FEF705F9A5F1C6
:1039600008024FF4805392B204F12A013046FEF768
:10397000FBF84FF4805302220A493046FEF7F4F870
:1039800029462046FFF738FF00200DB0BDE8F08F34
:103990007C440008F80D0020640F0020C444000897
:1039A000EC440008F8430008002103E00B4B5B588F
:1039B000435004310A480B4B42189A42F6D30A4A44
:1039C00002E0002342F8043B084B9A42F9D3FFF788
:1039D000EDFE00F015F8FFF781FB70473045000859
:1039E00000000020800000208000002058120020ED
:1039F000FEE70000014B1868704700BF1C00002064
:103A000070B500250C4E0D4CA41BA410A54209D185
:103A100000F044FC00250A4E0A4CA41BA410A54249
:103A200005D170BD56F8253098470135EEE756F8B8
:103A3000253098470135F2E7284500082845000859
:103A4000284500082C45000830B50024A24201D1C9
:103A5000002007E0035D01340D1915F8015CAB424D
:103A6000F4D0581B30BD10B5431E0A44914200D11A
:103A700010BD11F8014B03F8014FF7E7034602446C
:103A8000934200D1704703F8011BF9E70EB46FF0C1
:103A9000004100B59CB01DAB0290069007910491C7
:103AA0000848094953F8042B0591006802A90193BD
:103AB00000F066F80022029B1A701CB05DF804EB5F
:103AC00003B070471C0000200802FFFF2DE9F047FB
:103AD0008E6882469E420C469046994637D88A891F
:103AE00012F4906F31D00223256809696F1A656955
:103AF00005EB450595FBF3F509F101033B449D42B8
:103B000038BF1D46530530D5294600F02DFB06462B
:103B100050B90C234FF0FF30CAF80030A38943F0AE
:103B20004003A381BDE8F0873A462169FFF79BFF78
:103B3000A38923F4906343F08003A38126613E446C
:103B400026604E466561ED1BA5604E4500D94E4688
:103B500032464146206800F0A1FAA36800209B1B72
:103B6000A36023681E442660DCE72A4600F056FB6B
:103B700006460028E2D12169504600F0A9FAC8E7BC
:103B80002DE9F04F1D468B899DB01F0680460C46DF
:103B900016460FD50B696BB9402100F0E5FA20609D
:103BA000206128B90C23C8F800304FF0FF30C8E07E
:103BB000402363610023099320238DF829303023AB
:103BC0004FF0010B8DF82A30039537463D4615F826
:103BD000013B0BB1252B3ED1B7EB060A0BD0534668
:103BE000324621464046FFF771FF013000F0A480C5
:103BF000099B534409933B78002B00F09D800023E0
:103C00004FF0FF32CDE90523049307938DF853302D
:103C10001A932F46052217F8011B504800F030FA7E
:103C2000049BD0B9D90644BF20228DF853201A072F
:103C300044BF2B228DF853202A782A2A15D02F46EC
:103C400000200A25079A394611F8013B303B092B21
:103C50004DD9B8B10FE02F46B8E7404A3D46801A2B
:103C60000BFA00F018430490D3E7039A111D126871
:103C70000391002A01DB079204E0524243F0020361
:103C8000079204933B782E2B0CD17B782A2B33D1CF
:103C9000039B02371A1D1B680392002BB8BF4FF01D
:103CA000FF3305932E4D03223978284600F0E8F9BA
:103CB00038B14023401B03FA00F0049B0137034353
:103CC00004933978062227487E1C8DF8281000F0CE
:103CD000D7F9002838D0244B13BB039B073323F0BC
:103CE000070308330393099B4B4409936DE705FBD6
:103CF000023201200F46A6E700230A2519460137A4
:103D00000593384610F8012B303A092A03D9002BC5
:103D1000C8D00591C6E705FB012101230746F0E75E
:103D200003AB00932246114B04A94046AFF3008039
:103D3000B0F1FF3F8146D6D1A3895B063FF535AF91
:103D400009981DB0BDE8F08F03AB00932246074BE6
:103D500004A9404600F082F8EAE700BFF4440008F6
:103D6000FA440008FE44000800000000CD3A0008B4
:103D70002DE9F04791461F468A680B690646934233
:103D8000B8BF1346C9F8003091F843200C46DDF85F
:103D9000208012B10133C9F800302368990642BF70
:103DA000D9F800300233C9F80030256815F006054F
:103DB00007D104F1190AE368D9F800209B1AAB4235
:103DC00029DC94F843302268003318BF012392069F
:103DD0002ED404F1430239463046C047013021D089
:103DE0002368E56803F00603042B18BF0025D9F803
:103DF00000204FF0000908BFAD1AA368226908BF70
:103E000025EAE5759342C4BF9B1AED181A344D4557
:103E10001AD1002008E00123524639463046C047F7
:103E2000013003D14FF0FF30BDE8F0870135C2E724
:103E30003020E11881F843005A1C94F845102244C0
:103E4000023382F84310C4E7012322463946304644
:103E5000C0470130E6D009F10109D8E72DE9F04368
:103E600001F1430C0C46097E85B06E2917460646C3
:103E700098460C9A00F0B38022D8632936D00AD82D
:103E8000002900F0B980582900F0838004F1420530
:103E900084F8421032E0642901D06929F6D1206803
:103EA0001368050603F104012AD51B681160002B75
:103EB00003DA2D225B4284F843206F480A2239E05E
:103EC000732900F09D8008D86F2920D07029DDD19A
:103ED000236843F02003236003E0752917D0782975
:103EE000D4D17823654884F8453055E0136804F14F
:103EF0004205191D1B68116084F8423001238CE0D3
:103F00001B6810F0400F116018BF1BB2CFE7136899
:103F10002568181D1060280601D51B6802E0680698
:103F2000FBD51B886F2914BF0A22082252480021A2
:103F300084F843106568002DA560C0F29580216863
:103F400021F004012160002B3DD1002D40F08E8036
:103F50006546082A0BD12368DB0708D52369626808
:103F60009A42DEBF302305F8013C05F1FF35ACEB8A
:103F700005032361CDF800803B4603AA2146304665
:103F8000FFF7F6FE01304DD14FF0FF3005B0BDE830
:103F9000F083394884F84510136821681D1D1B689B
:103FA00015600A060BD5CA0744BF41F02001216005
:103FB0001BB9226822F0200222601022B7E74D06CA
:103FC00048BF9BB2EFE76546B3FBF2F102FB11334A
:103FD000C35C05F8013D0B460029F5D1B9E713682C
:103FE0002568181D6169106028061B6801D51960D5
:103FF00002E06A06FBD51980002365462361B9E714
:104000001368191D11601D6862680021284600F0C0
:1040100037F808B1401B606063682361002384F8AF
:104020004330A7E723692A4639463046C047013066
:10403000AAD023689B0713D4E068039B9842B8BFBB
:104040001846A3E701234A4639463046C0470130A7
:104050009AD00135E368039A9B1AAB42F2DCEBE796
:10406000002504F11909F5E7002BACD1037804F120
:10407000420584F842306CE7054500081645000803
:1040800010B5C9B202449042034601D1002303E0B7
:104090001C7801308C42F6D1184610BD884210B50C
:1040A00001EB020307D8421E99420AD011F8014BD6
:1040B00002F8014FF8E78342F5D98118D21AD342AA
:1040C00000D110BD13F8014D01F8014DF7E70000D4
:1040D00038B50546002943D051F8043C0C1F002B8D
:1040E000B8BFE41800F0D0F81E4A1368104633B980
:1040F000636014602846BDE8384000F0C6B8A342AB
:104100000BD921686218934201BF1A685B68521884
:10411000226063600460EDE713465A680AB1A24268
:10412000FAD919685818A0420BD1206801445818D0
:1041300082421960DED110685268014419605A60E9
:10414000D8E702D90C232B60D4E7206821188A42D3
:1041500001BF116852680918216062605C60C9E79C
:1041600038BD00BF400E002070B5CD1C25F0030502
:1041700008350C2D38BF0C25002D064601DBA94261
:1041800003D90C233360002070BD00F07DF8214A74
:104190001468214691B9204C23681BB9304600F0C1
:1041A00063F820602946304600F05EF8431C24D1B5
:1041B0000C233046336000F068F8E4E70B685B1BC3
:1041C00018D40B2B0FD90B60CC18CD50304600F013
:1041D0005CF804F10B00231D20F00700C31AD3D0B4
:1041E0005A42E250D0E74B688C4216BF63601360BE
:1041F0000C46EBE70C464968CCE7C41C24F00304EA
:10420000A04205D0211A304600F02EF80130CFD060
:104210002560DBE7400E0020440E0020F8B507467D
:1042200014460E4621B9BDE8F8401146FFF79CBF81
:1042300022B9FFF74DFF25462846F8BD00F026F8C5
:10424000A0420FD221463846FFF78EFF05460028D0
:10425000F2D031462246FFF706FC31463846FFF7DA
:1042600037FFE9E73546E7E738B50023054C054653
:1042700008462360FFF77CFA431C02D1236803B190
:104280002B6038BD541200207047704751F8043C31
:10429000181F002BBCBF0B58C0187047F8B500BFE3
:1042A000F8BC08BC9E467047F8B500BFF8BC08BC17
:0442B0009E4670476F
:1042B40002030405060708090A0B0C0D0E0F101063
:1042C4000102000000000000BC4300086530000843
:1042D400000000000000000080000000B04300085F
:1042E4002930000800000000000000004000000029
:1042F4000000000000000000010203040607080992
:10430400000000000102030449444C450000000081
:10431400253032583A253032583A253032583A2529
:104324003032583A253032583A25303258282564EC
:104334002E25642E25642E2564292D00253032581F
:104344003A253032583A253032583A253032583AE4
:10435400253032583A253032582825642E25642ECB
:1043640025642E256429206172702072657175653B
:1043740073740D0A0000000025642E25642E256444
:104384002E2564202D20253032583A253032583AD3
:10439400253032583A253032583A253032583A25A9
:1043A400303258202D20256C750D0A0062757A7AFA
:1043B40065725461736B000064656661756C745456
:1043C40061736B003132333435360D0A000000005E
:1043D40025642E25642E25642E25642D25642E2522
:1043E400642E25642E25642069636D7020726571C6
:1043F400756573740D0A0000253032583A25303241
:10440400583A253032583A253032583A2530325805
:104414003A253032582D253032583A253032583A20
:10442400253032583A253032583A253032583A2518
:104434003032583B2025643B20253034580000009E
:10444400554450205265706C793A0D0A48656C6C7D
:104454006F2066726F6D20554450205365727665E7
:104464007220746F2055445020436C69656E74212A
:1044740021210D0A00000000253032583A2530323F
:10448400583A253032583A253032583A2530325885
:104494003A253032582D253032583A253032583AA0
:1044A400253032583A253032583A253032583A2598
:1044B4003032583B2025643B2069700D0A0000000F
:1044C40025642E25642E25642E25642D25642E2531
:1044D400642E25642E2564207564702072657175C0
:1044E4006573740D0A00000025752D25750D0A00ED
:1044F400232D302B2000686C4C00656667454647C9
:10450400003031323334353637383941424344454B
:1045140046003031323334353637383961626364BA
:0445240065660000C8
:044528003501000851
:04452C001101000871
:104530000100000010000000AAAAAAAA001542BFAC
:10454000F05100000A0A0AC800A24A042000002014
:10455000000000000000000000000000000000005B
:10456000000000000000000000000000000000004B
:10457000000000000000000000000000000000003B
:10458000000000000000000000000000000000002B
:10459000000000000000000000000000000000001B
:1045A000000000000000000000000000000000000B
:04000005080039A90D
:00000001FF
